:020000040800F2
:10000000301E00209D010008BD660008015E00084A
:10001000A9660008411A0008D18800080000000005
:10002000000000000000000000000000AD750008A6
:100030002120000800000000ED6F0008817C00080E
:10004000B7010008B7010008B7010008B7010008B0
:10005000B7010008B7010008B7010008B7010008A0
:10006000B7010008B7010008B7010008B701000890
:10007000011D0008B7010008B7010008B70100081A
:10008000111D0008B7010008B7010008B7010008FA
:10009000B7010008B7010008B7010008B701000860
:1000A000B7010008B7010008B7010008B701000850
:1000B000557D0008657D0008B7010008B7010008FC
:1000C000B7010008B7010008B7010008B701000830
:1000D000B7010008B1880008C1880008B70100080E
:1000E000B7010008B7010008B7010008B701000810
:1000F000B7010008B7010008B7010008B701000800
:10010000B7010008B7010008B7010008B7010008EF
:10011000B7010008B7010008B7010008B7010008DF
:10012000B7010008B7010008211D0008B701000849
:10013000B7010008B7010008B7010008B7010008BF
:10014000B7010008B7010008B7010008B7010008AF
:10015000B7010008B7010008B7010008B70100089F
:10016000B7010008B7010008B7010008B70100088F
:10017000B7010008B7010008B7010008000000003F
:10018000B7010008B7010008DFF80CD000F030FE1E
:100190000048004741940008301E00200648804770
:1001A00006480047FEE7FEE7FEE7FEE7FEE7FEE75C
:1001B000FEE7FEE7FEE7FEE7417D00088901000853
:1001C0002DE9F05F0546002092469B46884606468C
:1001D000814640241BE0284641464746224600F01F
:1001E0009AF853465A46C01A914110D31146184600
:1001F000224600F081F82D1A67EB01084F4622468F
:100200000120002100F078F817EB00094E41201E74
:10021000A4F10104DFDC484631462A464346BDE8E6
:10022000F09FD2B201E000F8012B491EFBD27047CB
:100230000022F6E710B513460A4604461946FFF7B2
:10024000F0FF204610BD421C10F8011B0029FBD115
:10025000801A704710B5002200E0521C835C8C5C51
:10026000A34201D1002BF8D1D8B2E1B2401A10BD9F
:1002700030B50546002008E00A4602E0A34207D058
:10028000521C1378002BF9D1401C2C5C002CF3D1AC
:1002900030BD00000FB400B58DB010A909900B90CF
:1002A00000914FF0FF300A9000200C900548069016
:1002B000054807906A4609A80F9900F0B3FB0DB0F6
:1002C0005DF814FB410A00085F0A000830B50B46D0
:1002D000014600202022012409E021FA02F59D4276
:1002E00005D303FA02F5491B04FA02F52844151E4A
:1002F000A2F10102F1DC30BD202A04DB203A00FA31
:1003000002F1002070479140C2F1200320FA03F36C
:10031000194390407047202A04DB203A21FA02F06A
:100320000021704721FA02F3D040C2F1200291402F
:100330000843194670472DE9FF4F1C4681B0002144
:10034000D4E9016791464FF0FF358A468846A16996
:100350006D1C02988847216A834688470028F6D199
:10036000BBF1FF3F0CD026F4C066002F1ADD7006EB
:1003700015D5BBF12B0F0AD0BBF12D0F0FD104E027
:100380004FF0FF3005B0BDE8F08F46F48066A169FC
:100390006D1C029888477F1E8346002F02DDBBF14B
:1003A000300F03D0B9F1000F2AD025E0A1696D1CF0
:1003B00046F400767F1E029888478346002F05DDAD
:1003C000BBF1780F06D0BBF1580F03D0B9F1000F85
:1003D00010D011E0B9F1000F02D0B9F1100F0BD11C
:1003E000A1696D1C26F400767F1E0298884783461B
:1003F000102000E0082081464FEAE970009017E0E5
:100400000A20F8E74346AAFB092803FB0980DDF828
:1004100000C07F1E0AFB0C0112EB0B0A41EBEB78CC
:10042000A16946F4007605F10105029888478346E4
:10043000002F06DD4946584600F003FD5FEA000B39
:10044000E0D5E16902988847B00502D46FF0010059
:1004500098E7F00718D1700610D57005514605D5FC
:100460000023D1EB030163EB080200E04246206861
:10047000031D23600068C0E9001205E02068011D2B
:1004800021600068C0E900A828467BE72DE9FF5FEE
:100490001D464FF0FF3BD5E9014691465F464FF0C0
:1004A0000008A9697F1C01988847296A8246884705
:1004B0000028F6D1BAF1FF3F0CD024F4C064002E1E
:1004C00019DD600614D5BAF12B0F09D0BAF12D0F42
:1004D0000ED103E0584604B0BDE8F09F44F48064B8
:1004E000A9697F1C01988847761E8246002E02DD8E
:1004F000BAF1300F03D0B9F1000F26D032E0A9696C
:10050000761E44F400747F1C019888478246002EB2
:1005100005DDBAF1780F06D0BAF1580F03D0B9F162
:10052000000F10D01EE0B9F1000F02D0B9F1100F8A
:1005300018D1A969761E24F400747F1C019888479D
:100540008246102002E0082000E00A20814609E0EF
:1005500008FB0908A969761E44F400747F1C019801
:1005600088478246002E05DD4946504600F069FC6A
:100570000028EDDAE96901988847A00502D46FF0F8
:100580000100A8E7E00725D1600613D5600502D574
:10059000C8F1000000E0404629680A1D2A60096889
:1005A000220501D5087015E0220701D5088011E069
:1005B00008600FE02868011D29600068210502D548
:1005C00080F8008006E0210702D5A0F8008001E055
:1005D000C0F8008038467EE72DE9FF5FD2E901A729
:1005E0004FF00008916999461446DDF838B0464648
:1005F00001988847054659EA0B0005D009E0A16932
:10060000761C019888470546216A284688470028B5
:10061000F5D1681C03D05FEACA7005D015E04FF031
:10062000FF3004B0BDE8F09F2068011D2160D0F8C4
:1006300000800AE05FEACA7001D108F8015BA16995
:10064000761C7F1E019888470546002F1ADD681C1E
:1006500018D0B9F1000F0DD0E81705EBD0604211AA
:1006600020F01F0059F822102A1A01209040014260
:10067000E0D107E0BBF1000FDCD1216A28468847B2
:100680000028D7D0E16901988847BBF1000F07D156
:10069000002E05DD5FEACA7002D1002188F8001043
:1006A000A068B84203DDBBF1000F03D017B16FF0B3
:1006B0000100B6E73046B4E72DE9FF4F087883B074
:1006C0009946FF2805D0491C2D2804D0002400207D
:1006D00008E000200BE00124F9E700EB800003EBC9
:1006E0004000491C0B78FF2BF7D104B14042002396
:1006F0000293147819461D462D2C01D02B2C04D1C1
:10070000521C2D2C13D000240294AA461478FF2CDE
:100710000FD00A25A3FB057801FB05814FF0000CE3
:1007200003FB0C11521CE3194AEB0101EEE7012413
:10073000EAE7814453EA010002D019F5C87F06DADE
:1007400003980021C0E9001107B0BDE8F08F002533
:10075000AE4E2F46DFF8B882184600F074FDCDE9A2
:100760000001B9F1000002DAC9F1000400E004461A
:100770000023A74A1AEB030B42EB045A12E0E007EE
:1007800007D02A4633463846414600F020FA07464D
:1007900088462A4633461046194600F018FA0546A0
:1007A0000E466410002CEAD1DDE90001B9F1000F1A
:1007B0005A46534606DA00F07CFA3A46434600F0C1
:1007C00078FA05E000F003FA3A46434600F0FFF9F4
:1007D000029A0AB181F00041039AC2E90001B3E72D
:1007E0002DE9FF4F1F468DB0D7E901464FF0FF3886
:1007F0002E2045464FF000090B90B9696D1C0E98EC
:100800008847396A824688470028F6D1BAF1FF3F07
:100810000AD024F4D064002E11DDBAF12B0F08D0D9
:10082000BAF12D0F0BD102E0404611B08DE744F430
:100830008064B9696D1C0E9888478246761E6946A9
:10084000600501D52D2000E02B208DF8000001F17E
:10085000010B0DF1200809E0B9696D1C0E9888475D
:1008600082460F9844F40074761E0560002E02DD67
:10087000BAF1300FF0D00B998A453ED144F0800494
:1008800006E00F99681CA9F1010944F4007408609E
:10089000B9696D1C761E0E98884782463028F0D0C4
:1008A0002BE00B998A4505D1200603D444F080043F
:1008B000761E18E0504608F00BFA08B30DF113014C
:1008C000761E44F400748B4508D2AAF130000BF870
:1008D000010B200607D5A9F1010003E0200602D490
:1008E00009F101008146A00502D50F99681C086036
:1008F000B9696D1C0E9888478246002ED1DC53E002
:10090000002E51DDBAF1650F02D0BAF1450F4BD17F
:10091000A00549D5B9696D1C24F44074761E0E9863
:1009200088478246002E0CDD2B2804D0BAF12D0F0B
:1009300007D144F48074B9696D1C0E9888478246CB
:10094000761EE00501D52D2100E02B2108F8011BC2
:10095000CDF82C8021E00DF12901761E44F40074BD
:1009600088450CD2AAF1300010F0FF0088F8000092
:1009700002D10B99884509D908F1010806E0E00584
:1009800001D5244801E042F20F708146B9696D1C1F
:100990000E98884782460F980560002E04DD504669
:1009A00008F096F90028D6D1F9690E988847FF20FB
:1009B0008BF8000088F800000020069007904B4656
:1009C0006A4608A906A8FFF777FEA00502D46FF0D3
:1009D00001002AE714F0240F0AD0E00714D1DDE962
:1009E00006123868031D3B600068C0E900120BE086
:1009F000DDE9060100F033FC0146E00704D1386868
:100A0000021D3A600068016028460EE700001440AD
:100A10000000F03FF1D8FFFF026811441378016035
:100A200018467047D16004495161044911620021A0
:100A30001161114600F014BA190A0008390E0008B5
:100A4000426842B1016811F8013B23B1521EC0E96E
:100A50000012184670470121C160881E7047426825
:100A60005AB1C368016843B983688B4205D0491EF7
:100A7000521CC0E90012002070474FF0FF30704751
:100A80002DE9FE4F804681EA0300C00F0C4600901E
:100A900021F0004123F00045B8EB0200A94105D246
:100AA0004046214690461C460B46024623F0004035
:100AB000104347D0270DC7F30A00C3F30A51029031
:100AC000401A019040286BDAC3F3130040F4801BF6
:100AD0000098924620B10023D2EB030A63EB0B0B84
:100AE00001985946C0F140025046FFF705FC064602
:100AF0000D4650465946019A00F08CF910EB08005B
:100B00006141002487EA115284EAE7731A4340D016
:100B1000009A62B3019A012A4FEA075215DC001BC2
:100B200061EB02014FF0004202EA0752CDE90042B8
:100B3000001C41F5801132462B4600F036FB03B015
:100B4000BDE8F08F40462146F9E7001B61EB02014A
:100B5000001C41F5801300185B412018A2F5001716
:100B600047EB030140EAD570B6196D4111E06D08FD
:100B70004FEA360645EAC0754FEA0752001B61EBA3
:100B80000201001C41F5801149084FEA30000019AC
:100B9000514132462B4603B0BDE8F04F00F0F6BAA3
:100BA0000098012240000023D0EB020263EBE073C7
:100BB000009821464FEAE074B8EB000061EB0401B5
:100BC000E9E783F000435BE781F0004158E72DE956
:100BD000FE4F81EA030404F0004421F00041009438
:100BE0004FF0000B23F0004350EA01045ED052EABC
:100BF00003045BD0C3F30A54C1F30A552C44A4F296
:100C0000F3340194A0FB0254C1F3130141F48011A9
:100C1000C3F3130343F4801301FB024400FB034EB0
:100C2000840A970A44EA815447EA8357A4FB076879
:100C300002958D0A05FB07854FEA932C04FB0C54A3
:100C40002705029D4FEA065847EA1637B5EB080517
:100C50006EEB070C870E920E47EA811742EA831269
:100C6000A7FB0201B6EB0B0164EB00042B0D43EA7A
:100C70000C335E1844EB1C50DA465146E7FB020188
:100C8000C5F313044FEA0B3343EA14534FEA04321B
:100C9000019C43EA0603A4F10C040294009CCDE9F4
:100CA00000B400F082FA03B0BDE8F08F00200146E6
:100CB000F9E72DE9F04D81EA030404F0004B21F03F
:100CC000004514464FF0000A23F0004150EA0502A7
:100CD00020D054EA01021DD0C5F30A570246C5F3DD
:100CE0001303C1F31300C1F30A5640F4801543F413
:100CF0008013A7EB0608101BD64608F2FD3873EBED
:100D0000050002D308F1010801E092185B41B8F137
:100D1000000F03DA00200146BDE8F08D00204FF4FB
:100D20008011064684460EE0171B73EB050705D3BA
:100D3000121B63EB050306434CEA010C49084FEA1A
:100D4000300092185B4150EA0107EDD152EA0300EE
:100D500012D082EA040083EA0501084305D0101B83
:100D6000AB4106D20122002306E000224FF00043EF
:100D700002E06FF0010253101AEB06004CEB085131
:100D800010EB0A0041EB0B01BDE8F04D00F0FEB99D
:100D9000C1F30A52C1F3130140F2FF3341F4801151
:100DA0009A4202DA00200146704740F233439A42E9
:100DB000A2F2334202DC5242FFF7ADBAFFF79CBA0F
:100DC00030B5041E71F1000404DB4FF000444042D2
:100DD00064EB0101141E73F1000405DB1C464FF0A7
:100DE0000043524263EB0403994208BF904230BD76
:100DF000064C074D06E0E06840F0010394E8070068
:100E000098471034AC42F6D3FFF7C2F9BC9D0008F6
:100E1000DC9D0008202A06DBCB17203A41FA02F0BD
:100E200043EAE07306E041FA02F3D040C2F1200247
:100E30009140084319467047C0B24FF4F05100F09A
:100E40002BBA3A2800D2303820F02002412A01D3B0
:100E5000A2F13700884201D34FF0FF307047000005
:100E60002DE9F34F8BB04FF0000801F10C000C4658
:100E70004FF0010B46460DF1080A0190626901210D
:100E800001989047051E2DD0252D2CD0216A88472A
:100E9000C0B16269012101989047216A8847002802
:100EA000F7D1411E62690198904700E0761CA16964
:100EB0000B988847216A88470028F7D1E1690B9889
:100EC0008847DBE7A1690B9888470746A84201D10C
:100ED000761CD3E7E1690B9888477F1C02D1B8F1F3
:100EE000000F6FD046E1002762693D463946019800
:100EF00090472A2804D16269012101989047012571
:100F0000DFF884926269012101989047A0F13001D5
:100F10000A290AD24F45E5DC07EB870100EB4107C0
:100F2000303FDFD445F01005ECE7E90601D46FF05F
:100F300000476C280AD04C2814D0682815D06A289D
:100F40000DD074281CD07A281AD01DE062690121C6
:100F5000019890476C2802D045F0040514E045F054
:100F600002050DE045F020050AE0626901210198C3
:100F70009047682802D045F0080505E045F4006573
:100F80006269012101989047C4E9015765283DD065
:100F900019DC58287AD00CDC452837D004DC252809
:100FA00026D0412831D131E046282FD047282CD1F6
:100FB0002CE05B2877D0612828D063287CD0642877
:100FC00023D15AE0D0E06F2848D008DC66281DD035
:100FD00067281BD0692821D06E2816D127E07028F9
:100FE00045D0732868D0752847D078280DD14DE0BA
:100FF000A1690B988847054625283FF469AFE16948
:101000000B9888476D1C3FF46AAFB3E023466A46ED
:101010006FF001000B99FFF7E3FB9EE045F0400005
:101020006060A80723464FF0000236D43EE0E80790
:101030007FF447AF2068011D21600068290501D5B4
:1010400006701BE7290701D5068017E7A90703D516
:10105000F117C0E9006111E706600FE745F04000B5
:101060006060A80723464FF0080216D41EE040F641
:101070000E0125EA0100606016E045F04000606066
:10108000A80723464FF00A0207D40FE045F04000BE
:101090006060A80708D5234610226FF001000B9965
:1010A000FFF749F959E007E0234610226FF00100ED
:1010B0000B99FFF7EBF950E04FF000094F464B4614
:1010C000632802D05B2806D040E0E80601D4012066
:1010D000A06001273AE062690121019890475E28EB
:1010E00005D14FF00109626949460198904721698D
:1010F00039B900210A46534643F82120491C0829E2
:10110000FADBB0B3216969B9C11700EBD1625311A1
:101110000AEB830122F01F02821A01200B68904023
:1011200003430B6062690121019890475D28E8D173
:10113000B9F1000F09D00020514651F82020D243C8
:1011400041F82020401C0828F7DB02AB224600971C
:101150006FF001000B99FFF73FFA00280CDA401CF2
:1011600008D1BBF1000F05D04FF0FF300DB0BDE846
:10117000F08FFFE74046F9E7E90701D108F10108E0
:1011800006444FF0000B79E6CCCCCC0C10B5141E05
:1011900073F1000408DA401C41F1000192185B4130
:1011A0001A4301D120F0010010BD2DE9F04D924607
:1011B0009B4611B1B1FA81F202E0B0FA80F220321E
:1011C0009046FFF799F804460F4640EA0A0041EAC4
:1011D0000B0153465A46084313D0114653EA010007
:1011E00019D0C8F140025046FFF795F805460E4663
:1011F000504659464246FFF77FF8084305D0012084
:1012000004E020463946BDE8F08D0020054346EA5B
:10121000E0762C4337430A986305E40AA0EB080004
:101220000022FD0A44EA47540A3002D50020014654
:10123000E9E7010510196941DDE90845001969412F
:10124000BDE8F04DA2E70EB540F233420292002213
:10125000CDE900221346FFF7A8FF03B000BD01F05F
:10126000004330B421F0004150EA010206D00A0DDB
:10127000A2F56072C1F31301002A02DC30BC002029
:101280007047440F44EAC104C100E01830BC00EBD1
:10129000C25000F015B800007F2801D9002208E0F4
:1012A000064A02EB5002C007127800D1120902F080
:1012B0000F0201209040084070470000F89B000892
:1012C0000029A8BF7047401C490008BF20F001005A
:1012D000704710B4B0FA80FC00FA0CF050EA010438
:1012E00004BF10BC704749B1CCF1200421FA04F4CA
:1012F00011FA0CF118BF012121430843A3EB0C01A3
:10130000CB1D4FEA00614FEA102042BF002010BC05
:10131000704700EBC35010440029A4BF10BC7047B5
:10132000401C490008BF20F0010010BC704770B598
:101330000546AC6B206C00F0500050BB206C40F4B4
:10134000007020642068806800F04050E8B9207E7A
:10135000D8B92068C06A00F4700020B120688068A5
:1013600000F4806088B92068406820F0200021687F
:101370004860206C20F480702064206C00F4805061
:1013800018B9206C40F001002064204601F0CAFE2C
:101390000BE0206C00F0100018B1204601F0E7FED1
:1013A00003E0A06BC16C2846884770BD70B5054648
:1013B000AC6B40202064606C40F004006064204608
:1013C00001F0D5FE70BD70B50446A56B284601F04E
:1013D000CDFE70BD55494A6822F440324A604A68E1
:1013E00043681A434A600268526822F480720368B4
:1013F0005A6002685368026943EA022203685A602D
:101400000268526822F0407203685A6002685268AB
:1014100083681A4303685A600268926822F4006283
:1014200003689A6002689268C3681A4303689A6006
:101430003F4B826A9A4218D00268926822F070622A
:1014400003689A6002689268836A1A4303689A6024
:101450000268926822F0405203689A6002689268BB
:10146000C36A1A4303689A600BE00268926822F02C
:10147000706203689A600268926822F040520368C2
:101480009A600268926822F0020203689A60026819
:101490009368027E43EA420203689A602022125C4B
:1014A000A2B10268526842F4006203685A6002689E
:1014B000526822F4604203685A6002685368426AC4
:1014C000521E43EA423203685A6005E002685268DD
:1014D00022F4006203685A600268D26A22F4700241
:1014E0000368DA620268D36A828B521E43EA0252B0
:1014F0000368DA620268926822F4007203689A60F4
:101500000268936890F8302043EA422203689A60A8
:101510000268926822F4806203689A6002689368A5
:10152000426943EA822203689A60704700230140BF
:101530000100000F10B540220249034804F01DF9D4
:1015400010BD0000700500200803002010B50748FA
:101550000078012805D104F0B5FC05A000F03EF8A4
:1015600002E008A000F03AF810BD00005C00002086
:101570005B4C6F636B5D4C6F636B20436C6F73658B
:10158000000000005B4C6F636B5D416C72656164D1
:101590007920436C6F73650010B50648007828B950
:1015A00004F09CFC04A000F019F802E006A000F092
:1015B00015F810BD5C0000205B4C6F636B5D4C6FD9
:1015C000636B204F70656E005B4C6F636B5D416CAD
:1015D0007265616479204F70656E00000FB400B5CC
:1015E000A1B023A80090802101A8009B229A07F0B7
:1015F0006BFA0020009001A800F012FA21B05DF80B
:1016000014FB000038B53948007800B938BD002017
:10161000364908700090002412E004EB4400344A7C
:1016200052F820103348FEF715FE38B904EB440198
:101630002F4A02EB810148688047E7E7601CC4B28B
:101640002D4800788442E8DB002445E004EB840068
:101650002A4A52F820106A462648FEF71BFE012847
:1016600038D104EB8400254901EB800040680099E3
:1016700088421BDC04EB8400204901EB8000806879
:101680000099884212DB04EB84001C4A02EB8000C4
:10169000C1680098884704EB8400184A02EB800078
:1016A000016917A0009AFFF799FF12E004EB84008C
:1016B000124D05EB8000836804EB840005EB80008D
:1016C000426804EB840005EB8000016910A0FFF77D
:1016D00085FF9BE7601CC4B2144800788442B5DBE8
:1016E00013A0FFF77BFF00BF90E700008C000020F5
:1016F000BC9B0008700500208F000020449B000860
:101700005B5365745D257320746F2025640D0A009A
:101710005B4552525D25732052616E6765202564DA
:1017200020746F2025640D0A000000008E00002048
:101730005B4552525D556E6B6F6E776E20434D4424
:101740002053656E642048454C5020546F204765F7
:101750007420434D440D0A0010B50446402C03DAB2
:1017600000200B49085503E00020094981F83F009B
:1017700008A10748FEF77CFD054900220A54012014
:101780000549087040220249044803F0F6FF10BDE5
:10179000700500200D0A00008C00002008030020C6
:1017A00010B505A0FFF71AFF0FA0FFF717FF1EA047
:1017B000FFF714FF10BD00005B48454C505D436FC0
:1017C0006D6D616E64733A205354415455532C200F
:1017D0004F50454E2C20434C4F53452C20524543EF
:1017E0004F52440D0A0000005B48454C505D436F6A
:1017F0006D6D616E64733A54454D505F414C41527A
:101800004D203D206E2C2048554D495F414C4152A2
:101810004D203D206E2C20534D4F475F414C41528F
:101820004D203D206E0D0A005B48454C505D436FD6
:101830006D6D616E64733A4D4F544F525F4F4E2041
:101840003D206E2C204D4F544F525F4D4158203D4E
:10185000206E2C204C4544203D206E0D0A000000D7
:101860002DE9F8430024002500263048008810B1F7
:101870002F48008820B92FA0FFF7B0FEBDE8F883FD
:1018800031A0FFF7ABFE44E02846691C8DB2314918
:101890000F5C2846691C8DB22E4911F8008028463D
:1018A000691C8DB22B4911F80090214800888542AF
:1018B00005DA0846405D5A2801D1681C85B2701CC3
:1018C000C0B20646014643463A4623A0CDF80090F2
:1018D000FFF784FE07E02046621C94B2264A115CA2
:1018E00026A0FFF77BFE11480088844203DA2248D5
:1018F000005D4128EFD10D480088844205DA1E487A
:10190000005D412801D1601C84B21DA0FFF766FE76
:1019100000BF06480088844203DA054800888542F3
:10192000B2DB18A0FFF75AFE00BFA7E7B400002003
:10193000B80000205B4572726F725D4E6F20526579
:10194000636F7264730000005B5265636F7264734F
:101950005D0D0A00B01900205265632564205469AA
:101960006D653A253032643A253032643A2530329A
:1019700064205077643A0000B01500202564000010
:101980000D0A00005265636F72647320454E440D6A
:101990000A00000000B587B01348017813480278A8
:1019A000134890ED000ABCEEC00A10EE100A80B297
:1019B000104B1B78CDE90230CDE904210E480078A8
:1019C0000E490978CDE900100D48007808B10DA046
:1019D00000E00EA001460F4803780F4802780F4838
:1019E000FFF7FCFD07B000BD5D0000205E00002099
:1019F0009C0000209A000020990000209800002000
:101A00005C0000204F70656E00000000436C6F7337
:101A1000650000009700002096000020689D0008E7
:101A200070B504462046FEF70EFC85B264232A46B4
:101A30002146024804F084F970BD0000080300202C
:101A400000BFFEE710B505F089F80446B4F1FF3F8A
:101A500011D0012C04D0052C05D0062C19D112E090
:101A600000F086FC10BD00F06FFC03200A490870EE
:101A700000F020FF0DE000F04BFC03200649087049
:101A800000F018FF05E003200349087000F012FF82
:101A900000BF00BF00BFE5E70A00002010B504F05A
:101AA0003BFD04460B2C06D00C2C12D00D2C13D071
:101AB000102C1DD113E00F480078401C0D49087010
:101AC00008460078072801DB0120087000F0FCFFC1
:101AD0000EE000F093F80BE000F010F808E00320AF
:101AE0000549087000200349087000F0E3FE00BFBC
:101AF00000BF10BD040000200A00002010B53848C7
:101B0000007807286AD2DFE800F069041424364917
:101B10005900344800780A2803DC3C203149087019
:101B200004E030480078401F2E49087001F024F886
:101B300054E02D480078142803DC64202A490870FA
:101B400004E029480078401F2749087000F04AFD4A
:101B500044E026480088B0F57A7F04DC41F27070DA
:101B60002249088004E021480088C8381F490880BD
:101B700000F0CCFF32E01E48007818B964201C4900
:101B8000087004E01A4800780A38194908701848A3
:101B9000007804F0B3FF00F099FD1FE015480078CD
:101BA0000F2803DC3C201349087004E0114800783A
:101BB000401E1049087000F049FE0FE00E48007802
:101BC0000F2803DC3C200C49087004E00A48007828
:101BD000401E0949087000F02DFE00BF00BF10BD77
:101BE00004000020A6000020A7000020A80000207C
:101BF000A0000020AB000020AC00002010B5394848
:101C0000007807286CD2DFE800F06B041424374B0F
:101C10005B00354800783C2803DB0A203249087015
:101C200004E031480078401D2F49087000F0A4FFFF
:101C300056E02E480078642803DB14202B490870F6
:101C400004E02A480078401D2849087000F0CAFCCA
:101C500046E02748008841F27071884204DB4FF467
:101C60007A702349088004E021480088C830204960
:101C7000088000F04BFF33E01E480078642803DB47
:101C800000201C49087004E01A4800780A301949FD
:101C900008701848007804F031FF00F017FD1FE0CD
:101CA000154800783C2803DB0F201349087004E036
:101CB00011480078401C1049087000F0C7FD0FE083
:101CC0000E4800783C2803DB0F200C49087004E024
:101CD0000A480078401C0949087000F0ABFD00BFBD
:101CE00000BF10BD04000020A6000020A7000020B7
:101CF000A8000020A0000020AB000020AC000020C5
:101D000010B5024801F00AFC10BD0000600200207E
:101D100010B5024801F002FC10BD0000B003002025
:101D200010B5024801F0FAFB10BD0000500300207E
:101D30000146087810381823B0FBF3F20848805C9D
:101D4000C865032A05D908686FF30900001D886576
:101D500003E008686FF309008865886D704700002C
:101D600080940008014600208A6A8B69CBB932B1A1
:101D7000012A0DD0022A03D0032A10D10EE000BFA1
:101D8000CB6A03F08073B3F1807F00D1012007E0BC
:101D9000CB6AB3F1C07F00D1012001E000E000BFB9
:101DA00034E08B69B3F5005F1AD132B1012A07D054
:101DB000022A03D0032A11D10AE000BF01200EE05D
:101DC000CB6A03F08073B3F1807F00D1012006E07D
:101DD000CB6AB3F1C07F00D1012000E000BF15E065
:101DE00032B1012A05D0022A04D0032A0CD103E023
:101DF00000BF00BF012008E0CB6A03F08073B3F19D
:101E0000807F00D1012000E000BF00BF704730B5E7
:101E10000468246824F4802405682C6004686360E6
:101E20008468402C04D10468A2600468E16003E087
:101E30000468A1600468E26030BD000007480068E3
:101E400040F0807005490860002005494860084658
:101E5000006840F00100086070470000FCED00E001
:101E6000001000E01CB5082000F056FF0C2000F028
:101E700053FF0A2000F050FF00200090019006223E
:101E80001103684600F0BCFF1CBD00000EB5012226
:101E90009103324800F066FF30480078A5284CD105
:101EA0000020019002900622110301A800F05AFFC1
:101EB0009DF805009DF8041040EA0120284908809B
:101EC0009DF807009DF8061040EA0120254908808A
:101ED0009DF809009DF8081040EA01202249088079
:101EE0001F480088B0F5007F08DC1E480088B0F568
:101EF000007F03DC08460088802808DDFFF7B2FF7A
:101F0000002017490880174908801749088014489D
:101F100002884FF40041154800F024FF1148028860
:101F20004FF49031124800F01DFF0F4802884FF423
:101F30008031104800F016FF0FE0A520029001222A
:101F4000910302A800F05CFF00200090019006229F
:101F50001103684600F054FF00BF0EBDB200002020
:101F6000B4000020B6000020B8000020B01500200A
:101F7000B0170020B01900200EB5234802884FF496
:101F80000041224800F03CFF214802884FF4903184
:101F9000204800F035FF204802884FF480311F4868
:101FA00000F02EFF18480088000A8DF80800164837
:101FB0000088C0B28DF8090015480088000A8DF825
:101FC000040013480088C0B28DF80500124800884C
:101FD000000A8DF8000010480088C0B28DF801009A
:101FE00002224FF4C04102A800F00AFF022246F28A
:101FF000020101A800F004FF022246F20401684633
:1020000000F0FEFE0EBD0000B4000020B015002060
:10201000B6000020B0170020B8000020B019002042
:102020007047000010B5084B5968084B1B68084CF6
:10203000B3FBF4F303FB00F200BF034B5B685B1AD6
:102040009342FAD310BD0000001000E018000020F9
:1020500040420F0010B504F05DFB08A201210846C4
:1020600004F0C0FC09A20121032004F0BBFC0BA278
:102070000121042004F0B6FC10BD0000507265730D
:1020800073204E65772050570000000031312054F6
:102090006F20436F6E6669726D000000313420540A
:1020A0006F2044656C6574650000000010B504F095
:1020B00031FB08A20121084604F094FC09A2012189
:1020C000032004F08FFC0BA20121042004F08AFC01
:1020D00010BD0000506C65617365205072657373AC
:1020E00000000000313120546F20436F6E6669722A
:1020F0006D000000313420546F2044656C657465B8
:10210000000000002DE9F0476A48007818B14FF050
:10211000FF30BDE8F087012066490870002066495D
:102120000870012065490870002065490870012089
:1021300064490870002014E000210EE0002200EB4A
:10214000C003DFF884C163445A5400EBC003DFF8D6
:102150007CC163445A544A1CD1B20929EEDB411CAC
:10216000C8B21028E8DB0026002700240025A0467E
:10217000A1465748008810B15648008868B904F055
:10218000C9FA55A20121084604F02CFC4FF49670C0
:1021900001F0A4FB4FF0FF30BBE767E00CE05148D3
:1021A000025D06EBC600484943184046411C01F059
:1021B000FF081A54601C84B245480088844206DA3D
:1021C0004848005D412802D0B8F1080FE7DB4048DD
:1021D0000088844215DA4348005D412811D141222C
:1021E0003046711CCEB200EBC00037494318404660
:1021F000411C01F0FF081A54601C84B24FF0000823
:1022000000E03FE00CE03848425D07EBC7002F4993
:1022100043184846411C01F0FF091A54681C85B256
:102220002C480088854206DA2F48405D5A2802D0A3
:10223000B9F1080FE7DB27480088854215DA2A48FC
:10224000405D5A2811D15A223846791CCFB200EB92
:10225000C0001E4943184846411C01F0FF091A54AA
:10226000681C85B24FF0000900E00BE018480088B8
:10227000844207DA17480088854203DA102E01DA13
:10228000102F8BDB00BFBE4201DA304600E038463B
:102290000B49087008460078801C032190FBF1F080
:1022A000084908700846007808B901200870012024
:1022B0002FE70000000000200100002003000020A4
:1022C000800000200200002010040020A004002054
:1022D000B4000020B80000204E6F205265636F727A
:1022E00064000000B0150020B019002010B504F003
:1022F00011FA03A20121084604F074FB10BD00008E
:10230000313420546F2053656C657863740000008D
:1023100010B504F0FFF907A20121084604F062FBA2
:1023200007A20121022004F05DFB4FF4967001F03A
:10233000D5FA10BD4368616E676520457272000072
:102340004C656E204572720010B504F0E3F905A2E9
:102350000121084604F046FB4FF4967001F0BEFAE6
:1023600010BD00004368616E6765204F4B000000A0
:1023700010B50A480078401E09490A5C0123074845
:102380000178022004F00CFB04480078401CC1B224
:1023900004A2022004F026FB10BD00005B00002018
:1023A0004D0000202020000010B504F0B3F90AA26F
:1023B0000121084604F016FB0BA20121022004F0C3
:1023C00011FB0DA20121032004F00CFB0EA2012140
:1023D000042004F007FB10BD313120546F205365F9
:1023E0006C4D6F6465000000313220546F20496EDF
:1023F0006372656173650000313320546F2044655A
:102400006372656173650000313420546F20436F3F
:102410006E6669726D00000010B5022306480278EE
:102420000121032004F0BCFA0223044802780521AC
:10243000032004F0B5FA10BD96000020980000209B
:1024400010B5114B114A1249124804F0B3FE022391
:10245000104802780321012004F0A2FA02230C485C
:1024600002780621012004F09BFA02230648027834
:102470000921012004F094FA0223044802780F2174
:10248000012004F08DFA10BD870000208600002096
:1024900085000020840000202DE9F04744480078A2
:1024A00008B1BDE8F08701204149087004F032F915
:1024B0004048007828B940A20121084604F092FA69
:1024C000EFE740480078012802DA01203D49087012
:1024D0003C4800783C490978884203DD3A48007856
:1024E0003849087039A20121084604F07BFA01231B
:1024F000344802780E21184604F052FA0024A0460F
:10250000022730480078401E00EB4000C4B22D483E
:10251000007800EB400000F0FF0826480078804576
:1025200002DD244890F800803DE04FF0010A4FF0B2
:102530000A09002500260EE004EBC400274B1844CE
:10254000425D51464B1C03F0FF0A0123384604F05C
:1025500027FA681CC5B2082D06DA04EBC4001F492F
:102560000844405D4128E7D10FE004EBC4001C495A
:102570000844825D02234946384604F011FA09F105
:10258000020000F0FF09701CC6B2082E06DA04EB48
:10259000C40013490844805D5A28E6D1781CC7B2AC
:1025A000601CC4B200BF4445BFDB00BF79E7000038
:1025B00001000020800000204E6F205265636F7282
:1025C0006473000003000020020000205265636F66
:1025D00072643A20506167653A00000010040020E0
:1025E000A004002010B502230348027801211846F8
:1025F00004F0D6F910BD0000A700002010B504F0CB
:1026000089F806A20121084604F0ECF902230748E4
:1026100002780121184604F0C3F910BD53657420F7
:1026200048756D20416C61726D000000A7000020AC
:1026300010B504F06FF80AA20121084604F0D2F99F
:102640000AA20121022004F0CDF90CA201210320ED
:1026500004F0C8F90CA20121042004F0C3F910BD54
:10266000323020202D20202D2020000020203A2054
:10267000203A2020205765656B3A00003131205404
:102680006F20566572740000313220546F204D6502
:102690006E75000010B50A480078401E09490A5CB2
:1026A000012307480178022004F07AF904480078F1
:1026B000401CC1B204A2022004F094F910BD000035
:1026C0005A000020450000202020000010B5032300
:1026D000034802780121022004F062F910BD0000D5
:1026E000A000002010B504F015F806A2012108464C
:1026F00004F078F90223074802780121184604F013
:102700004FF910BD536574204C45442042726967EF
:1027100068740000A000002010B503F0FBFF03A2C6
:102720000121084604F05EF910BD00004C656E20E2
:102730004572720010B50223034802780921042073
:1027400004F02EF910BD00009A00002010B50223FD
:10275000034802780B21184604F022F910BD00004E
:102760005D00002010B502230348027805211846B9
:1027700004F016F910BD00005E00002010B503F053
:10278000C9FF0FA20121084604F02CF910A2012173
:10279000022004F027F90DA20321084604F022F9D3
:1027A0000FA20721032004F01DF90EA20521042029
:1027B00004F018F90AA20B21042004F013F910BD4B
:1027C000313520546F20536574205254430000006B
:1027D0005375633A20204572723A202000000000B1
:1027E0002500000070706D0010B503F093FF06A285
:1027F0000121084604F0F6F8022306480278012178
:10280000184604F0CDF810BD536574204D61785F13
:1028100054656D00AC00002010B503F07BFF03A2EF
:102820000121084604F0DEF810BD00004D656D2062
:102830004572720010B50223034802780121184640
:1028400004F0AEF810BD0000AC00002010B502236B
:10285000034802780121184604F0A2F810BD0000D8
:10286000AB00002010B503F055FF03A2012108467C
:1028700004F0B8F810BD00005665727469667920DE
:102880004F4B000010B503F045FF06A2012108469A
:1028900004F0A8F80223064802780121184604F043
:1028A0007FF810BD536574204F6E5F54656D000056
:1028B000AB00002010B503F02DFF10A20121084647
:1028C00004F090F84FF4FA7001F008F803F022FFDA
:1028D0000EA20121084604F085F810A20121022071
:1028E00004F080F811A20121032004F07BF813A268
:1028F0000121042004F076F810BD0000416C7265DF
:10290000616479204F70656E000000003132205400
:102910006F20436F6E74726F6C000000313320546F
:102920006F2053656C6563740000000031342054DF
:102930006F204368616E67650000000031352054E8
:102940006F2056696577000010B503F0E3FE03A21F
:102950000121084604F046F810BD000050776420BD
:102960004572720010B503F0D5FE0AA20121084697
:1029700004F038F80AA20121022004F033F80BA277
:102980000121032004F02EF80BA20121042004F001
:1029900029F810BD313120546F20436F6E6600005E
:1029A000313220546F2053656C6500003133205460
:1029B0006F20496E63720000313420546F204465EB
:1029C0006372000010B51B48007808282FD2DFE89A
:1029D00000F02E040A10161C222817A20B21012039
:1029E00004F000F823E016A20B21012003F0FAFF07
:1029F0001DE015A20B21012003F0F4FF17E014A243
:102A00000B21012003F0EEFF11E013A20B210120A6
:102A100003F0E8FF0BE012A20B21012003F0E2FF1C
:102A200005E011A20B21012003F0DCFF00BF00BF75
:102A300010BD000005000020596561720000000013
:102A40004D6F6E20000000004461746500000000BE
:102A5000486F7572000000004D696E200000000094
:102A600053656320000000005765656B000000009F
:102A700010B503F04FFE0AA20121084603F0B2FF91
:102A80000AA20121022003F0ADFF0BA201210320C5
:102A900003F0A8FF00F096F8FFF7D2FC10BD00008D
:102AA0004E6F774368616E67653A000032302020D0
:102AB0002D20202D2020000020203A20203A202008
:102AC000205765656B3A000010B50F48007807285D
:102AD00017D2DFE800F01604070A0D10130000F00B
:102AE00057F80EE0FFF78AFD0BE000F02BF808E046
:102AF000FFF7F8FD05E0FFF7C5FE02E0FFF774FE03
:102B000000BF00BF10BD00000400002010B504236A
:102B1000034802880121022003F042FF10BD00009B
:102B2000A800002010B50423054890ED000ABCEE73
:102B3000C00A10EE102A0121184603F031FF10BD23
:102B40009C00002010B503F0E5FD06A20121084617
:102B500003F048FF0423074802880121022003F004
:102B60001FFF10BD53657420536D6F6720416C616A
:102B7000726D0000A800002010B5022303480278FF
:102B80000121184603F00CFF10BD0000A600002034
:102B900010B503F0BFFD06A20121084603F022FF95
:102BA0000223074802780121184603F0F9FE10BD00
:102BB0005365742054656D20416C61726D00000096
:102BC000A600002010B50D4A0D490E4804F00CFB7C
:102BD00002230C4802780121184603F0E1FE02238B
:102BE000074802780421184603F0DAFE022303485E
:102BF00002780721184603F0D3FE10BD83000020A1
:102C0000820000208100002010B503F083FD10A297
:102C10000121084603F0E6FE11A20121032003F082
:102C2000E1FE13A20121042003F0DCFE002409E0F0
:102C3000601CC4B2601E11490A5C012321460220B7
:102C400003F0AEFE0E4800788442F1DB10BD0000B8
:102C50004E6F772050617373776F726400000000CD
:102C6000313120546F20436F6E6669726D00000031
:102C7000313420546F20526573656C0025000020AC
:102C80005500002010B503F045FD03A201210846C0
:102C900003F0A8FE10BD000050617373776F72647B
:102CA000207265636F7264730000000010B503F05A
:102CB0000DFF0446032C03D104A005F0F5FE04E04B
:102CC000042C02D105A005F0EFFE10BD4E6F726D11
:102CD000616C20416C61726D00000000537065638F
:102CE00069616C20416C61726D00000072B600BFBA
:102CF000FEE7000010B500220121064800F004FFA5
:102D0000062000F0DDF801221146024800F0FCFE2A
:102D100010BD00000004024010B504464FF6FF70DD
:102D200000EA0434FFF7E6FF00F060F8002201211A
:102D30000B4800F0E9FE202000F0C2F8201400F05B
:102D4000BFF8201200F0BCF8E0B200F0B9F80122A0
:102D50001146034800F0D8FE00F048F810BD00000E
:102D6000000402402DE9F04106460C4617460022B9
:102D70000121114800F0C8FE032000F0A1F8C4F3BF
:102D8000074000F09DF8C4F3072000F099F8E0B286
:102D900000F096F8002505E0FF2000F0C9F8705516
:102DA000681C85B2BD42F7DB01221146024800F0E3
:102DB000ABFEBDE8F08100000004024010B5002425
:102DC00000220121084800F09FFE052000F078F85D
:102DD000FF2000F0ADF8044601221146024800F041
:102DE00093FE204610BD00000004024010B500BF55
:102DF000FFF7E4FF00F001000028F9D110BD00004A
:102E00002DE9F05F81460F461646DFF8B0A0002599
:102E1000C7F30F38C7F30B0BCBF58054A64200DA8B
:102E2000344646E04FEA08314FF480525046FFF7EF
:102E300099FF002508E00BEB05001AF80000FF28B9
:102E400000D003E0681C85B2A542F4DB00BFA542B8
:102E500016DA4046FFF760FF002507E019F8050085
:102E60000BEB05010AF80100681C85B2A542F5DBF1
:102E70004FEA08314FF48052504600F069F804E000
:102E800022463946484600F063F8B44200D111E0CA
:102E900008F101001FFA80F84FF0000BA14427440D
:102EA000301B86B2B6F5805F02DD4FF4805400E03F
:102EB0003446B7E700BFBDE8F09F0000B005002032
:102EC00001B5642301226946014801F0D9FD08BD1E
:102ED000300100202DE9F04106460C461746FFF769
:102EE00009FF00220121114800F00EFE0220FFF729
:102EF000E7FFC4F30740FFF7E3FFC4F30720FFF742
:102F0000DFFFE0B2FFF7DCFF002504E0705DFFF7B4
:102F1000D7FF681C85B2BD42F8DB01221146034889
:102F200000F0F2FDFFF762FFBDE8F081000402400F
:102F300001B582B06420012301AA02A900900348D0
:102F400001F07DFE9DF804000EBD00003001002060
:102F50002DE9F04107460E4614460025FF2C01DC02
:102F6000254601E04FF4807512E02A463146384686
:102F7000FFF7B0FFAC4200D10BE02F442E44601BA2
:102F800084B2B4F5807F02DD4FF4807500E0254601
:102F9000EBE700BFBDE8F08138B5024600200090A5
:102FA00000BF92F83C00012801D1022038BD012069
:102FB00082F83C0000BF0868092816D91068C0686C
:102FC0000C780A3C04EB44050724AC40A043146889
:102FD000E0600C780A3C04EB44048868A040146864
:102FE000E46820431468E06013E0106800690C781E
:102FF00004EB44050724AC40A043146820610C781E
:1030000004EB44048868A0401468246920431468D1
:1030100020614868072817D21068406B0C79641E3D
:1030200004EB84051F24AC40A04314686063088847
:1030300080B20C79641E04EB8404A0401468646BB5
:1030400020431468606331E048680D2817D2106887
:10305000006B0C79E41F04EB84051F24AC40A043F3
:1030600014682063088880B20C79E41F04EB8404A0
:10307000A0401468246B20431468206316E0106895
:10308000C06A0C790D3C04EB84051F24AC40A043BE
:103090001468E062088880B20C790D3C04EB84046B
:1030A000A0401468E46A20431468E062194B1A4C8B
:1030B0001068A04206D10868122803D1586840F46D
:1030C00080005860144C1068A0421CD10868102879
:1030D00002D00868112816D1586840F400005860E2
:1030E000086810280FD10D4800680D4CB0FBF4F0B3
:1030F00000EB80004000009002E00098401E00902D
:1031000000980028F9D100BF002082F83C0000BFE1
:1031100000BF4BE7002301400020014018000020C1
:1031200040420F0010B504460A49206888420FD17A
:1031300009480088094908800748408808490880EC
:1031400001200849087002220349074800F09EF850
:1031500010BD00000020014090000020A2000020CF
:10316000A400002094000020C80000207047704791
:1031700070B5044600250CB9012070BD1549A06A40
:10318000884200D000BF206C30B9204600F024F8FF
:103190000020606484F83C00206C00F0100088B9C6
:1031A000206C20F4885040F0020020642046FEF796
:1031B00011F900206064206C20F0020040F0010052
:1031C000206400E0012500BF002084F83C0000BF1F
:1031D0002846D2E70100000F10B586B0044614213E
:1031E00001A8FDF725F825492068884244D100BF91
:1031F000002000902248006840F480702049086058
:103200000846006800F48070009000BF00BF00BF57
:10321000002000901A481438006840F00400184953
:10322000143908600846006800F00400009000BFF0
:1032300000BF00BF002000900846006840F0010079
:1032400008600846006800F00100009000BF00BF61
:1032500001200190032002900020039001A9094859
:1032600000F050FB02200190032002900020039008
:1032700001A9054800F046FB06B010BD0020014042
:103280004438024000080240000002402DE9F843A3
:1032900004460D46164600200090804600BF94F874
:1032A0003C00012802D10220BDE8F883012084F807
:1032B0003C0000BF2068806800F00100A0B92068D1
:1032C000806840F0010021688860564800685649CF
:1032D000B0FBF1F000EB4000009002E00098401ECF
:1032E000009000980028F9D12068806800F4807070
:1032F000B0F5807F05D12068806820F48070216857
:1033000088602068806800F0010000287FD0206C71
:1033100040F20161884340F4807020642068406876
:1033200000F4806028B1206C20F4005040F48050FC
:103330002064206C00F48050B0F5805F04D1606C94
:1033400020F00600606401E00020606400BF0020FF
:1033500084F83C0000BF354F3548A16BC863354841
:10336000A16B08643448A16BC8646FF02200216827
:1033700008602068406840F08060216848602068EC
:10338000806840F4807021688860226802F14C01F6
:1033900033462A46A06B00F057FA8046786800F062
:1033A0001F0018BB25492068884213D02449206893
:1033B000884204D1381D006800F01F0050B1214937
:1033C000206888422BD11948001D006800F01F00BA
:1033D000102824D22068806800F04050F8B9206896
:1033E000806840F080402168886018E013492068B8
:1033F000884214D12068806800F0405078B9206875
:10340000806840F080402168886008E0FFE7206C19
:1034100040F010002064606C40F0010060644046A1
:1034200042E700001800002040420F000023014046
:103430002F130008C7130008AD1300080020014037
:10344000002101400022014070B50446A56D00F046
:1034500061FB064694F83500022808D0802060659C
:1034600000BF002084F8340000BF012070BD206838
:10347000006820F01600216808602068406920F08C
:10348000800021684861206C08B9A06C28B12068D0
:10349000006820F00800216808602068006820F0BB
:1034A00001002168086010E000F034FB801B052853
:1034B0000BD920206065032084F8350000BF002070
:1034C00084F8340000BF0320D0E72068006800F0D3
:1034D00001000028E8D194F85C103F208840A860E3
:1034E000012084F8350000BF002084F8340000BFBC
:1034F00000BFBBE7014691F83500022803D08020C9
:10350000486501207047052081F83500086800688B
:1035100020F001000A6810600020F3E7F8B50446C7
:10352000002000908C4800684FF41651B0FBF1F772
:10353000A56D2E6894F85C1008208840304098B142
:103540002068006800F0040070B12068006820F076
:1035500004002168086094F85C1008208840A86086
:10356000606D40F00100606594F85C1001208840B7
:10357000304068B12068406900F0800040B194F8A4
:103580005C1001208840A860606D40F0020060651A
:1035900094F85C1004208840304068B120680068CE
:1035A00000F0020040B194F85C1004208840A8604C
:1035B000606D40F00400606594F85C101020884055
:1035C000304078B32068006800F0080050B394F8E9
:1035D0005C1010208840A8602068006800F48020FB
:1035E00080B12068006800F4002028B9206CC8B1C0
:1035F0002046216C884715E0A06C98B12046A16C4C
:1036000088470FE02068006800F4807028B92068BF
:10361000006820F0080021680860206C10B1204686
:10362000216C884794F85C102020884030400028A6
:1036300065D02068006800F0100000285FD094F882
:103640005C1020208840A86094F83500052828D117
:103650002068006820F01600216808602068406932
:1036600020F0800021684861206C08B9A06C28B166
:103670002068006820F008002168086094F85C1059
:103680003F208840A860012084F8350000BF00205A
:1036900084F8340000BF206D10B12046216D8847AA
:1036A000F8BD2068006800F4802080B120680068C0
:1036B00000F4002028B9606C10B12046616C884786
:1036C0001DE0E06BD8B12046E16B884717E0206829
:1036D000006800F4807068B92068006820F010006D
:1036E00021680860012084F8350000BF002084F8BC
:1036F000340000BFE06B10B12046E16B8847606D7D
:1037000038B3606D00F00100F0B1052084F8350099
:103710002068006820F001002168086000BF009860
:10372000401C0090B84200D905E02068006800F015
:1037300001000028F3D100BF012084F8350000BF4C
:10374000002084F8340000BFE06C10B12046E16C2A
:10375000884700BFA4E70000180000202DE9F041D1
:103760000446002500F0D6F9074614B90120BDE84B
:10377000F081606A00B100BF022084F8350000BF0C
:10378000002084F8340000BF2068006820F00100A9
:10379000216808600AE000F0BDF9C01B052805D9C2
:1037A00020206065032084F83500E0E72068006889
:1037B00000F001000028EED120680568214805408E
:1037C000D4E901010843E1680843216908436169BC
:1037D0000843A1690843E1690843216A0843054396
:1037E000606A042803D1D4E90B010843054320682B
:1037F00005602068456925F00705606A0543606A31
:1038000004280DD1A06A0543E06A48B12046FEF7BE
:10381000A9FA28B140206065012084F83500A6E7A8
:10382000206845612046FEF783FA064694F85C104E
:103830003F208840B06000206065012084F835009A
:10384000002094E73F8010F02DE9F04704460D4634
:1038500016461F464FF00008D4F8589000BF94F861
:103860003400012802D10220BDE8F087012084F84D
:10387000340000BF94F83500012825D1022084F8D7
:103880003500002060653B46324629462046FEF75B
:10389000BEFA94F85C103F208840C9F80800206800
:1038A000006840F0160021680860206C28B120688C
:1038B000006840F00800216808602068006840F057
:1038C00001002168086006E000BF002084F8340091
:1038D00000BF4FF002084046C6E7000070B504463E
:1038E00000F018F906462546681C10B10448007817
:1038F000054400BF00F00EF9801BA842FAD370BD4A
:1039000014000020F8B502460B46002500240020D4
:103910000021D6E0012606FA01F51E6806EA050434
:10392000AC4274D11E7906F00306012E04D01E7934
:1039300006F00306022E13D190684F000326BE4006
:10394000B0434F00DE68BE403043906050680126AF
:103950008E40B0431E79C6F300168E40304350604F
:103960001E7906F00306032E09D0D0684F00032607
:10397000BE40B0434F009E68BE403043D0601E79C9
:1039800006F00306022E13D1CF0802F1200656F8E6
:1039900027004E07F70E0F26BE40B0434F07FF0E1D
:1039A0001E69BE403043CF0802F1200646F82700CA
:1039B00010684F000326BE40B0431E7906F0030690
:1039C0004F00BE40304310605E6806F44036002E63
:1039D00076D000BF002600963C4E366846F48046FE
:1039E0003A4F3E603E46366806F48046009600BF79
:1039F00000BF374E8F0856F827008E07370F0F2667
:103A0000BE40B043334EB24202D1002624E057E01C
:103A1000314EB24201D101261EE0304EB24201D1F8
:103A2000022619E02E4EB24201D1032614E02D4E9B
:103A3000B24201D104260FE02B4EB24201D105263D
:103A40000AE02A4EB24201D1062605E0284EB242D3
:103A500001D1072600E008268F073F0FBE40304304
:103A60001B4E8F0846F82700224E3068A0435E6840
:103A700006F4801606B120431E4E3060361D3068B5
:103A8000A0435E6806F4001606B12043194E361DA9
:103A90003060184E361F3068A0435E6806F400366A
:103AA00006B12043134E361F3060361F3068A043E6
:103AB0005E6806F4803606B120430E4E083E306044
:103AC000491C1029FFF426AFF8BD0000443802401D
:103AD0000838014000000240000402400008024093
:103AE000000C024000100240001402400018024086
:103AF000001C0240083C0140024613690B400BB118
:103B0000012000E0002070470AB1816101E00B0450
:103B10008361704701480068704700000C00002076
:103B20000348006803490978084401490860704760
:103B30000C0000201400002010B50D48006840F46F
:103B400000700B4908600846006840F48060086017
:103B50000846006840F480700860032000F0A6F872
:103B60000F2000F007F800F02BF8002010BD000037
:103B7000003C024070B504460E4800784FF47A715C
:103B8000B1FBF0F00C490968B1FBF0F5284601F0F3
:103B90007AF908B1012070BD102C07D2002221460D
:103BA000501E00F045F80548046001E00120F2E7EE
:103BB0000020F0E714000020180000201000002072
:103BC00008B500BF002000900E48006840F4804017
:103BD0000C4908600846006800F48040009000BF6F
:103BE00000BF00BF00200090081F006840F0805018
:103BF000091F08600846006800F08050009000BF70
:103C000000BF08BD443802400146084600280DDBCD
:103C100000BF00BF00F01F0301229A4043099B0030
:103C200003F1E023C3F8002100BF00BF00BF7047CD
:103C30002DE9F05F80460D461646002704F05AFF36
:103C4000074639462A46334601F00700C0F1070A05
:103C5000BAF1040F02D94FF0040A01E0C0F1070ADB
:103C6000D14600F1040ABAF1070F02D24FF0000A60
:103C700001E0A0F1030AD4464FF0010A0AFA09FA5A
:103C8000AAF1010A0AEA020A0AFA0CFA4FF0010B39
:103C90000BFA0CFBABF1010B0BEA030B4AEA0B042A
:103CA0002146404604F02EFFBDE8F09F00BF00F023
:103CB0000702064B19684FF6FF031940044B0B43EC
:103CC00043EA0221014B196000BF70470CED00E090
:103CD0000000FA05F8B5044600250026207800F01B
:103CE000010020B9207800F0040004282FD1002022
:103CF0005B498866FFF70EFF054606E0FFF70AFFFF
:103D0000401B022801D90320F8BD56480068C0F3C3
:103D1000C0600028F2D160688101207A41EA007019
:103D200050498431086001204D498866FFF7F2FE52
:103D3000054606E0FFF7EEFE401B022801D90320EE
:103D4000E2E748480068C0F3C0600028F2D020785D
:103D500000F0020002287DD100BF00200090414801
:103D60004030006840F080503E49403108600846CD
:103D7000006800F08050009000BF00BF3A48006823
:103D800040F4807038490860FFF7C4FE054606E03D
:103D9000FFF7C0FE401B022801D90320B4E73248D8
:103DA000006800F480700028F2D02E48703000685F
:103DB00000F440764EB3A08900F44070B04224D0A5
:103DC00028487030006820F44076012027490860B8
:103DD00000200860234870300660006800F0010091
:103DE00098B1FFF797FE054608E0FFF793FE401BEA
:103DF00041F28831884201D9032085E719487030A3
:103E00000068C0F340000028EFD000BFA08900F494
:103E10004070B0F5407F0CD112480830006820F4A3
:103E2000F810134AE168114008430E490831086050
:103E300007E00C480830006820F4F8100949083100
:103E40000860084870300068A189C1F30B0108437D
:103E5000044900E002E07031086000BF002053E731
:103E6000000047420038024000700040400E4742C8
:103E7000FFFCFF0F70B504460D460CB9012070BD64
:103E80005848006800F00700A84209D255490D7053
:103E90000846006800F00700A84201D00120EEE7C4
:103EA000207800F0020002281DD1207800F00400E4
:103EB000042805D14C48006840F4E0504A490860A5
:103EC000207800F00800082805D14748006840F431
:103ED0006040454908604448006820F0F000A1684F
:103EE000084341490860207800F00100A8B36068E9
:103EF000012807D13C4808380068C0F34040B8B9F1
:103F00000120BCE76068022802D06068032807D15E
:103F1000354808380068C0F3406048B90120AEE772
:103F2000314808380068C0F3400008B90120A6E70E
:103F30002D48006820F00300616808432A490860A2
:103F4000FFF7E8FD064609E0FFF7E4FD801B41F2BC
:103F50008831884202D9032091E707E022480068AF
:103F600000F00C006168B0EB810FEDD11D480068D6
:103F700000F00700A84209D91A490D7008460068E8
:103F800000F00700A84201D0012078E7207800F077
:103F90000400042807D11448006820F4E050E168C8
:103FA000084311490860207800F00800082808D16B
:103FB0000D48006820F46040216940EAC1000A49C8
:103FC000086000F03FF808490968C1F30311074A87
:103FD000515CC8400649086006480068FFF7CAFD02
:103FE00000204CE7003C024008380240889400085A
:103FF00018000020100000200148006870470000F1
:104000001800002000B5FFF7F7FF04490968C1F365
:104010008221034A515CC84000BD000008380240BC
:104020009894000800B5FFF7E7FF04490968C1F359
:104030004231034A515CC84000BD000008380240CC
:10404000989400082DE9F047002400250026A14699
:104050002548006800F00C0020B1042805D008288D
:104060003AD105E0DFF8849039E0DFF8849036E05B
:104070001D48001F006800F03F041B48001F006837
:1040800000F4800078B11A481749091F0968C1F384
:104090008811A0FB01700146224600233846FCF738
:1040A0008FF805460EE011480F49091F0968C1F352
:1040B0008811A0FB01700146224600233846FCF718
:1040C0007FF805460848001F0068C0F30140401C07
:1040D0004600B5FBF6F902E0DFF8109000BF00BF24
:1040E0004846BDE8F0870000083802400024F4008C
:1040F00000127A00F8B504460CB90120F8BD20780A
:1041000000F00100002874D0F948006800F00C00AD
:1041100004280DD0F648006800F00C00082813D1E0
:10412000F348001F006800F48000B0F5800F0BD149
:10413000EF4808380068C0F34040002859D0606854
:10414000002856D10120D9E700BF6068B0F5803F54
:1041500008D1E7480838006840F48030E44908395D
:1041600008601EE06068B0F5A02F0DD1E048083867
:10417000006840F48020DE4908390860084600687D
:1041800040F4803008600CE0D9480838006820F41A
:104190008030D749083908600846006820F480203C
:1041A000086000BF606890B1FFF7B4FC054606E008
:1041B000FFF7B0FC401B642801D903209EE7CC48E0
:1041C00008380068C0F340400028F1D011E0FFF744
:1041D000A1FC054606E0FFF79DFC401B642801D9C1
:1041E00003208BE7C24808380068C0F3404000282D
:1041F000F1D1207800F0020002285FD1BC480068AD
:1042000000F00C0058B1BA48006800F00C00082813
:104210001CD1B748001F006800F48000B0B9B44852
:1042200008380068C0F3400020B1E068012801D0E0
:10423000012063E7AE480838006820F0F8002169E3
:1042400040EAC100AA490839086037E0E06800B3D5
:104250000120A8490860FFF75DFC054606E0FFF76E
:1042600059FC401B022801D9032047E7A048083821
:104270000068C0F340000028F1D09D48083800686D
:1042800020F0F800216940EAC10099490839086026
:1042900014E0002097490860FFF73CFC054606E063
:1042A000FFF738FC401B022801D9032026E790487D
:1042B00008380068C0F340000028F1D1207800F0F1
:1042C000080008282CD16069A8B101208A4908603B
:1042D000FFF720FC054606E0FFF71CFC401B022808
:1042E00001D903200AE782486C300068C0F340001F
:1042F0000028F1D014E000207F490860FFF70AFC95
:10430000054606E0FFF706FC401B022801D9032002
:10431000F4E677486C300068C0F340000028F1D123
:10432000207800F00400042870D10027704838304D
:10433000006800F0805090B900BF002000906C48E9
:104340003830006840F080506949383108600846CC
:10435000006800F08050009000BF00BF0127674850
:10436000006800F48070B0B96448006840F4807060
:1043700062490860FFF7CEFB054606E0FFF7CAFB7F
:10438000401B022801D90320B8E65C48006800F40D
:1043900080700028F2D000BFA068012808D15448DE
:1043A0006830006840F001005149683108601DE044
:1043B000A06805280DD14E486830006840F0040020
:1043C0004B49683108600846006840F00100086009
:1043D0000CE047486830006820F00100444968312B
:1043E00008600846006820F00400086000BFA0686C
:1043F000A8B1FFF78FFB054609E0FFF78BFB401BD9
:1044000041F28831884202D9032077E626E0384815
:1044100068300068C0F340000028EED013E0FFF7DA
:1044200079FB054608E0FFF775FB401B41F2883138
:10443000884201D9032061E62D4868300068C0F346
:1044400040000028EFD1012F07D1294838300068FB
:1044500020F0805026493831086000BFA06900284C
:1044600045D02348006800F00C0008285DD0A06902
:10447000022845D100201F490866FFF74BFB05467F
:1044800006E0FFF747FB401B022801D9032035E671
:10449000174808380068C0F340600028F1D1D4E91B
:1044A00007010843616A40EA81110122A06AC2EB58
:1044B000500041EA00412C20005D41EA00600C49B7
:1044C000091F086001200B490866FFF723FB05461A
:1044D00006E0FFF71FFB401B022801D903200DE671
:1044E000034808380068C0F340600028F1D049E074
:1044F0000838024000004742800E474200700040EA
:10450000002021490866FFF705FB054606E0FFF796
:1045100001FB401B022801D90320EFE51B4800687E
:10452000C0F340600028F2D12CE0A069012800D13E
:10453000E4E51648001D0668A069012820D006F4AD
:104540008001E06981421BD106F03F01206A81426F
:1045500016D147F6C0703040616AB0EB811F0FD1B1
:1045600006F440310122A06AC2EB5000B1EB004FCB
:1045700006D106F070612C20005DB1EB006F01D018
:104580000120BBE50020B9E50000474200380240A9
:1045900002460023106800F1500303EB8103186802
:1045A000704710B50023046804F1500303EB810346
:1045B0001A6010BD70B505460B46164600242868E3
:1045C00040680E4900EA0104200CD870C4F30420AE
:1045D000587004F03F009870C4F3423018705EB910
:1045E000D87802F004FDD870587802F000FD5870B9
:1045F000987802F0FCFC9870002070BD3FFFFF002F
:1046000070B504460B46164600252068806A58603F
:1046100020680069C0F30E009860206800680E49A9
:1046200000EA0105C5F305401870C5F3062058706F
:1046300005F07F009870A80DD8705EB9187802F068
:10464000D6FC1870587802F0D2FC5870987802F0B6
:10465000CEFC9870002070BD7F7F7F0070B504464F
:104660000CB9012070BD607F20B900202077204662
:1046700000F04EF8022060772068C068C0F3001098
:1046800000283CD100BFCA2021684862532021681D
:10469000486200BF204602F051FD0546EDB9206892
:1046A00080681A4908402168886021696068084369
:1046B0006169084321688968084321688860216826
:1046C000E068086120680169208941EA00402168AA
:1046D0000861204602F057FD05465DB92068006C70
:1046E00020F48020216808642068006CA1690843D8
:1046F0002168086400BFFF202168486200E00025AF
:104700000DB9012060772846ACE70000BFFF8FFF9E
:104710001FB50446002000900190029003900949C3
:10472000206888420CD102200090C00103906846A6
:10473000FFF7D0FA08B1FEF7D9FA01200249086064
:104740001FBD0000002800403C0E47422DE9F0410B
:1047500005460C4617464FF0000800BF287F012889
:1047600002D10220BDE8F0810120287700BF02209D
:1047700068774FB9607800F01000102804D1607895
:1047800000F0EF000A30607087B9E07802F03AFC80
:104790000304607802F036FC43EA0023A07802F0BC
:1047A00031FC0343207843EA403809E0E078000414
:1047B000617840EA0120A1780843217840EA413835
:1047C00000BFCA202968486253202968486200BF98
:1047D000284602F0B3FC064646B90B4808EA00003A
:1047E00029684860284602F0CEFC06460EB9012032
:1047F000687700BFFF202968486200BF00BF002023
:10480000287700BF3046ADE73FFFFF002DE9F041BC
:1048100004460D4617464FF0000800BF207F0128D0
:1048200002D10220BDE8F0810120207700BF0220E4
:104830006077CFB92068806800F0400000B102E0E6
:104840000020E87000BF287802F0DCFB03046878E1
:1048500002F0D8FB43EA0023A87802F0D3FB03431D
:10486000E87843EA805812E02068806800F0400051
:1048700000B102E00020E87000BF287800046978E9
:1048800040EA0120A9780843E97840EA815800BF4E
:10489000CA202168486253202168486200BF204630
:1048A00002F04CFC0646B6B9124808EA000021683E
:1048B00008602068806820F4802021688860D5E93D
:1048C00003010843216889680843216888602046FD
:1048D00002F059FC06460EB90120607700BFFF20A8
:1048E0002168486200BF00BF0020207700BF30462B
:1048F00098E700007F7F7F0070B5044600250B48D5
:104900002168C860FFF706F9054607E0FFF702F9DE
:10491000401BB0F57A7F01D9032070BD2068C068C4
:1049200000F020000028F1D00020F6E75F7F0100B2
:1049300010B504460CB9012010BD606A38B9606832
:10494000B0F5827F00D105E00021E16102E00021A5
:10495000216161610021A16294F8510028B9002011
:1049600084F85000204600F047F8022084F85100F7
:104970002068006820F0400021680860A08800F4EA
:104980008270218901F404410843A18901F4006186
:104990000843217C01F002010843217D01F001015F
:1049A0000843218B01F400710843217F01F0380195
:1049B00008432021095D01F080010843218D01F4A5
:1049C00000510843216808600421A06901EA1040F1
:1049D00094F8241001F01001084321684860206811
:1049E000C06920F400602168C86100206065012072
:1049F00084F8510000209FE710B586B004461421CA
:104A000001A8FBF715FC1B49206888422FD100BF85
:104A1000002000901848006840F480501649086053
:104A20000846006800F48050009000BF00BF00BF3F
:104A30000020009010481438006840F002000E4931
:104A4000143908600846006800F00200009000BFBA
:104A500000BF382001900220029000200390032024
:104A600004900520059001A90448FEF74BFF06B00D
:104A700010BD0000003001404438024000040240F4
:104A80002DE9F84304460F4616461D46FFF742F847
:104A90008046B14694F85100012802D00220BDE8BA
:104AA000F88307B10EB90120F9E700BF94F8500070
:104AB000012801D10220F2E7012084F8500000BF54
:104AC000032084F85100002060652763A686E686EF
:104AD000A063A087E08760642064A068B0F5004F01
:104AE0000BD12068006820F0400021680860206831
:104AF000006840F48040216808602068006800F089
:104B00004000402805D02068006840F0400021683F
:104B10000860E068B0F5006F37D1606810B1B9F196
:104B2000010F09D1206B00882168C860206B801CB0
:104B30002063E08E401EE08623E02068806800F05D
:104B4000020002280AD1206B00882168C860206B0F
:104B5000801C2063E08E401EE08612E0FEF7DAFF44
:104B6000A0EB0800A84201D3681C00B94DB9012090
:104B700084F8510000BF002084F8500000BF0320DB
:104B80008DE7E08E0028D8D136E0606810B1B9F129
:104B9000010F09D1206B007821680873206B401C3D
:104BA0002063E08E401EE08623E02068806800F0ED
:104BB000020002280AD1206B007821680873206B5C
:104BC000401C2063E08E401EE08612E0FEF7A2FF4C
:104BD000A0EB0800A84201D3681C00B94DB9012020
:104BE00084F8510000BF002084F8500000BF03206B
:104BF00055E7E08E0028D8D142462946204602F0EB
:104C000025FC08B120206065A06850B900BF0020D5
:104C100000902068C068009020688068009000BF05
:104C200000BF012084F8510000BF002084F850002C
:104C300000BF606D08B1012031E700202FE72DE9AA
:104C4000FE4F04460F4690461D460C9E01200190E3
:104C5000FEF760FF814694F851B060680290AA4662
:104C6000BBF1010F0BD00298B0F5827F04D1A06890
:104C700010B9BBF1040F02D00220BDE8FE8F1FB1B6
:104C8000B8F1000F00D00DB90120F6E700BF94F88D
:104C90005000012801D10220EFE7012084F85000E4
:104CA00000BF94F85100042802D0052084F8510078
:104CB00000206065C4F83880E587A5872763E5860E
:104CC000A586206460642068006800F040004028E9
:104CD00005D02068006840F0400021680860E06866
:104CE000B0F5006F52D1606810B1BAF1010F09D16F
:104CF000206B00882168C860206B801C2063E08ED8
:104D0000401EE0863BE02068806800F00200022838
:104D100010D1E08E70B1019801280BD1206B008872
:104D20002168C860206B801C2063E08E401EE086F6
:104D3000002001902068806800F0010068B1E08FD9
:104D400058B12068C068A16B0880A06B801CA0636C
:104D5000E08F401EE08701200190FEF7DBFEA0EB14
:104D60000900B0420BD3701C48B1012084F85100F7
:104D700000BF002084F8500000BF03207DE7E08ED4
:104D80000028C0D1E08F0028BDD152E0606810B18A
:104D9000BAF1010F09D1206B007821680873206BEC
:104DA000401C2063E08E401EE0863CE02068806866
:104DB00000F00200022810D1E08E70B101980128A5
:104DC0000BD1206B007821680873206B401C206396
:104DD000E08E401EE086002001902068806800F090
:104DE000010068B1E08F58B12068C068A16B0870FD
:104DF000A06B401CA063E08F401EE0870120019063
:104E0000FEF788FEA0EB0900B04201D3701C00B988
:104E10004EB9012084F8510000BF002084F85000F2
:104E200000BF032029E7E08E0028BFD1E08F0028D3
:104E3000BCD14A463146204602F008FB40B1202052
:104E4000606500BF002084F8500000BF012014E717
:104E5000A06850B900BF002000902068C068009092
:104E600020688068009000BF00BF012084F85100D6
:104E700000BF002084F8500000BF606D08B1012021
:104E8000FBE60020F9E670B504462546681EB0F141
:104E9000807F01D301200FE0681E4FF0E0214861C0
:104EA0000F214FF0FF3003F02DFE00204FF0E021E6
:104EB000886107200861002070BD704770470000BE
:104EC00030B502460B4600BF92F83C00012801D1E4
:104ED000022030BD012082F83C0000BF022082F891
:104EE0003D00106844681068816824F070041868F8
:104EF000044310684460184D1068A8421BD0106825
:104F0000B0F1804F17D0154D1068A84213D0144D42
:104F10001068A8420FD0134D1068A8420BD0124D54
:104F20001068A84207D0114D1068A84203D0104D58
:104F30001068A84205D121F080015868014310682B
:104F40008160012082F83D0000BF002082F83C0013
:104F500000BF00BFBDE700000000014000040040AA
:104F600000080040000C00400004014000400140E7
:104F70000018004010B504460CB9012010BD94F88B
:104F80003D0028B9002084F83C00204600F026F8B7
:104F9000022084F83D00211D206802F0EBFE012074
:104FA00084F8460000BF84F83E0001213F200155EF
:104FB000402001554120015500BF00BF012084F869
:104FC000420043200155442001554520015500BFB2
:104FD000012084F83D000020D0E7000038B50446E9
:104FE0002068B0F1804F3CD100BF002000903648CF
:104FF000006840F00100344908600846006800F08D
:105000000100009000BF00BF3048314908604FF0F8
:10501000C060486000212E488160C1604FF480610B
:10502000016189004161890081610021C1610162E2
:105030004162FEF793FB08B1FDF758FE00BF24481C
:105040002062846300BF00BF0146E162846300BF49
:10505000002211461C20FEF7EBFD1C20FEF7D4FDBC
:1050600030E01C492068884218D100BF0020009021
:105070001548006840F002001349086008460068BF
:1050800000F00200009000BF00BF002211461D206A
:10509000FEF7CEFD1D20FEF7B7FD13E00E49206898
:1050A00088420FD100BF002000900748006840F000
:1050B0000400054908600846006800F004000090FC
:1050C00000BF00BF38BD00004038024028600240E9
:1050D000600200200004004000080040014691F8F2
:1050E0003D00012801D001207047022081F83D00D9
:1050F0000868C06840F001000B68D8601A4B086867
:1051000098421BD00868B0F1804F17D0174B086841
:10511000984213D0164B086898420FD0154B086878
:1051200098420BD0144B0868984207D0134B08687C
:10513000984203D0124B086898420CD108688068E6
:1051400000F00702062A0CD00868006840F0010051
:105150000B68186005E00868006840F001000B6803
:1051600018600020C0E7000000000140000400407B
:1051700000080040000C00400004014000400140D5
:10518000001800402DE9F04104460D46002700BFFD
:1051900094F83C00012802D10220BDE8F0810120F2
:1051A00084F83C0000BF022084F83D002068866837
:1051B00026F0770626F47F46206886602868502807
:1051C00033D00CDC202850D004DC00284BD0102831
:1051D00051D149E0302849D040284CD139E06028ED
:1051E0002DD0702807D0B0F5805F03D0B0F5005FF8
:1051F00041D10DE041E0D5E902136A68206802F070
:105200003AFE2068866846F077062068866034E0BB
:10521000D5E902136A68206802F02DFE20688068D4
:1052200040F480402168886027E0EA686968206867
:1052300002F012FF5021206802F028FE1DE0EA680B
:105240006968206802F01BFF6021206802F01EFEE2
:1052500013E0EA686968206802F0FEFE40212068D9
:1052600002F014FE09E000BF00BF00BF29682068FB
:1052700002F00CFE01E0012700BF00BF012084F80E
:105280003D0000BF002084F83C0000BF384684E7A2
:10529000704770B504462068C5682068066906F046
:1052A0000200022819D105F00200022815D1401F82
:1052B00021680861012020772068806900F00300E0
:1052C00018B12046FFF7E4FF05E0204600F00CF996
:1052D000204600F0C0F90020207706F004000428E2
:1052E00019D105F00400042815D1C04321680861D4
:1052F000022020772068806900F4407018B12046B1
:10530000FFF7C6FF05E0204600F0EEF8204600F06B
:10531000A2F90020207706F00800082819D105F02E
:105320000800082815D1C0432168086104202077AF
:105330002068C06900F0030018B12046FFF7A8FFFD
:1053400005E0204600F0D0F8204600F084F9002067
:10535000207706F01000102819D105F01000102851
:1053600015D1C04321680861082020772068C069F2
:1053700000F4407018B12046FFF78AFF05E0204690
:1053800000F0B2F8204600F066F90020207706F021
:10539000010048B105F0010030B16FF00100216853
:1053A0000861204600F0DEF906F08000802809D16F
:1053B00005F08000802805D1C0432168086120469F
:1053C000FFF77BFD06F04000402809D105F04000C2
:1053D000402805D1C04321680861204600F0CCF97F
:1053E00006F02000202809D105F02000202805D152
:1053F000C043216808612046FFF760FD70BD0000D2
:1054000010B586B00446142101A8FAF711FF3049FF
:105410002068884238D100BF002000902D480068E5
:1054200040F001002B4908600846006800F00100C8
:10543000009000BF00BF00BF002000900846006839
:1054400040F0020008600846006800F0020000908A
:1054500000BF00BFC02001900220029000200390F6
:1054600004900220059001A91B48FEF74BFA022088
:10547000019002900020039004900220059001A961
:105480001648FEF73FFA20E01549206888421CD1F3
:1054900000BF002000900F48006840F008000D4950
:1054A00008600846006800F00800009000BF00BFD8
:1054B00088140190022002900020039004900220A2
:1054C000059001A90748FEF71DFA06B010BD0000BF
:1054D0000004004030380240000002400004024056
:1054E00000080040000C024070472DE9F0410446DE
:1054F0000D461646002700BF94F83C00012802D153
:105500000220BDE8F081012084F83C0000BF36B1E4
:10551000042E1BD0082E31D00C2E5ED145E029463A
:10552000206802F0BDFC2068806940F00800216816
:1055300088612068806920F0040021688861206803
:105540008069296908432168886148E02946206804
:1055500002F0DEFC2068806940F400602168886108
:105560002068806920F480602168886120688069F3
:10557000296940EA01202168886130E029462068D5
:1055800002F004FD2068C06940F008002168C8618D
:105590002068C06920F004002168C8612068C069E3
:1055A000296908432168C86119E02946206802F08A
:1055B00029FD2068C06940F400602168C861206846
:1055C000C06920F480602168C8612068C0692969C9
:1055D00040EA01202168C86101E0012700BF00BF47
:1055E00000BF002084F83C0000BF384689E710B5B2
:1055F00004460CB9012010BD94F83D0028B90020E4
:1056000084F83C00204600F025F8022084F83D0094
:10561000211D206802F0AEFB012084F8460000BF87
:1056200084F83E0001213F200155402001554120D2
:10563000015500BF00BF012084F8420043200155FE
:10564000442001554520015500BF012084F83D004C
:105650000020D0E77047704770B504460D4615B975
:1056600094F83E000BE0042D02D13F20005D06E0DF
:10567000082D02D14020005D01E04120005D01289D
:1056800001D0012070BD1DB9022084F83E000EE05B
:10569000042D03D102213F20015508E0082D03D13C
:1056A00002214020015502E0022141200155012242
:1056B0002946206802F0CEFB23492068884203D0A7
:1056C00022492068884201D1012000E0002028B151
:1056D0002068406C40F40040216848641A49206802
:1056E00088421BD02068B0F1804F17D0184920683D
:1056F000884213D01749206888420FD01649206885
:1057000088420BD011492068884207D0134920688D
:10571000884203D01249206888420CD120688068F2
:1057200000F00706062E0CD02068006840F001004B
:105730002168086005E02068006840F001002168E9
:10574000086000209EE700000000014000040140C6
:105750000004004000080040000C004000400140F0
:10576000001800400168B1F1804F02D10121014AC7
:1057700011707047950000207047F8B504460D463B
:10578000164694F8420020282DD105B10EB901200B
:10579000F8BD012020630020606332462946204680
:1057A00002F0A4FF0746206B012819D100BF00209A
:1057B000009020680068009020684068009000BF5A
:1057C00000BF00BF00BF21680C3151E8001F41F04D
:1057D000100021680C3141E80002002AF3D100E0FA
:1057E00001273846D4E70220D2E7000070B504460E
:1057F0000D4607492068884202D1284601F0F0FF93
:1058000004492068884202D12846FBF7A5FF70BDF5
:105810000010014000440040704700002DE9F84F9F
:105820000446206805682068C668206847694FF00C
:105830000009CA4605F00F09B9F1000F0AD105F0B9
:10584000200038B106F0200020B1204602F0BAFD59
:10585000BDE8F88FB9F1000F7CD007F0010018B94E
:1058600006F49070002875D005F0010030B106F400
:10587000807018B1606C40F00100606405F00400B5
:1058800030B107F0010018B1606C40F002006064B4
:1058900005F0020030B107F0010018B1606C40F073
:1058A0000400606405F0080048B106F0200010B95B
:1058B00007F0010018B1606C40F008006064606C93
:1058C000002846D005F0200028B106F0200010B1D5
:1058D000204602F077FD20684069C0F3801A606CB2
:1058E00000F0080010B9BAF1000F2DD0204602F0E8
:1058F00010FD2068406900F04000402820D100BF22
:1059000000BF2168143151E8001F21F040002168D8
:10591000143141E80002002AF3D100BFE06B50B11E
:105920007F48E16B0865E06BFDF7E4FD88B1E06B53
:10593000016D88470DE02046FFF76EFF09E009E0A2
:105940002046FFF769FF04E02046FFF765FF0020CF
:1059500060647DE7206B012878D105F010000028F5
:1059600074D006F010000028FAD000BF002000908C
:1059700020680068009020684068009000BF00BF69
:105980002068406900F04000402870D1E06B00685A
:1059900040681FFA80F8B8F1000F58D0A08D40453C
:1059A00055DDA4F82E80E06BC069B0F5807F43D050
:1059B00000BF00BF21680C3151E8001F21F4807046
:1059C00021680C3141E80002002AF3D100BF00BF7A
:1059D00000BF2168143151E8001F21F00100216847
:1059E000143141E80002002AF3D100BF00BF00BF1C
:1059F0002168143151E8001F21F040002168143162
:105A000041E80002002AF3D100BF202084F84200C0
:105A10000020206300BF00BF21680C3151E8001F47
:105A200021F0100021680C3141E80002002AF3D176
:105A300000BFE06BFDF708FD02206063A08DE28DE2
:105A4000801A81B22046FFF7D1FE0EE052E0A08D11
:105A500040450AD1E06BC069B0F5807F05D10220D6
:105A60006063A18D2046FFF7C1FEF1E6FFE7A08D40
:105A7000E18D401A1FFA80F8E08DD0B3B8F1000F25
:105A800037D000BF00BF21680C3151E8001F21F45E
:105A9000907021680C3141E80002002AF3D100BF68
:105AA00000BF00BF2168143151E8001F21F0010040
:105AB0002168143141E80002002AF3D100BF202000
:105AC00084F842000020206300BF00BF21680C3131
:105AD00051E8001F21F0100021680C3141E800025C
